S01700005265616C2054696D6520436C6F636B2E73726563CE
S11300000C942A000C9447000C9447000C9447006D
S11300100C9447000C9489050C9447000C944700F9
S11300200C9447000C9447000C9447000C94470030
S11300300C9447000C94A5050C9447000C944700BD
S11300400C9447000C9447000C9447000C94470010
S11300500C94470011241FBECFE5D8E0DEBFCDBF0E
S113006011E0A0E6B0E0E8E7F7E102C005900D92E8
S1130070A438B107D9F711E0A4E8B1E001C01D929A
S1130080AB38B107E1F70E94D6050C94BA0B0C9477
S11300900000823451F1833420F4813409F07BC0B0
S11300A007C0833409F43EC0843409F074C057C0D7
S11300B0413069F42AB381E090E0AC0102C0440FFE
S11300C0551F6A95E2F7BA01622B6ABB08952AB3F9
S11300D081E090E0AC0102C0440F551F6A95E2F73D
S11300E0BA01609562236ABB0895413069F427B36D
S11300F081E090E0AC0102C0440F551F6A95E2F71D
S1130100BA01622B67BB089527B381E090E0AC018C
S113011002C0440F551F6A95E2F7BA016095622345
S113012067BB0895413069F424B381E090E0AC01E9
S113013002C0440F551F6A95E2F7BA01622B64BBF3
S1130140089524B381E090E0AC0102C0440F551F30
S11301506A95E2F7BA016095622364BB0895413061
S113016069F421B381E090E0AC0102C0440F551F53
S11301706A95E2F7BA01622B61BB089521B381E06D
S113018090E0AC0102C0440F551F6A95E2F7BA0132
S11301906095622361BB0895823451F1833420F465
S11301A0813409F07BC007C0833409F43EC0843431
S11301B009F074C057C0413069F42BB381E090E07A
S11301C0AC0102C0440F551F6A95E2F7BA01622BD5
S11301D06BBB08952BB381E090E0AC0102C0440FE7
S11301E0551F6A95E2F7BA01609562236BBB0895C7
S11301F0413069F428B381E090E0AC0102C0440FBF
S1130200551F6A95E2F7BA01622B68BB089528B3BB
S113021081E090E0AC0102C0440F551F6A95E2F7FB
S1130220BA016095622368BB0895413069F425B32F
S113023081E090E0AC0102C0440F551F6A95E2F7DB
S1130240BA01622B65BB089525B381E090E0AC014F
S113025002C0440F551F6A95E2F7BA016095622304
S113026065BB0895413069F422B381E090E0AC01AC
S113027002C0440F551F6A95E2F7BA01622B62BBB4
S1130280089522B381E090E0AC0102C0440F551FF1
S11302906A95E2F7BA016095622362BB08958234DD
S11302A0F1F0833420F4813409F04FC006C0833464
S11302B041F1843409F049C036C029B381E090E0AB
S11302C0062E02C0880F991F0A94E2F730E08223B9
S11302D0932302C0959587956A95E2F7089526B30E
S11302E081E090E0062E02C0880F991F0A94E2F77D
S11302F030E08223932302C0959587956A95E2F7AF
S1130300089523B381E090E0062E02C0880F991F60
S11303100A94E2F730E08223932302C095958795EF
S11303206A95E2F7089520B381E090E0062E02C0BA
S1130330880F991F0A94E2F730E08223932302C0C6
S1130340959587956A95E2F7089580E0089582343B
S1130350B9F0833418F48134C9F505C08334E9F065
S11303608434A1F527C02BB381E090E0AC0102C036
S1130370440F551F6A95E2F7BA0162276BBB0895D3
S113038028B381E090E0AC0102C0440F551F6A9588
S1130390E2F7BA01622768BB089525B381E090E0D3
S11303A0AC0102C0440F551F6A95E2F7BA016227F7
S11303B065BB089522B381E090E0AC0102C0440F14
S11303C0551F6A95E2F7BA01622762BB0895823429
S11303D061F0833418F4813469F405C0833439F04E
S11303E0843441F406C06ABB089567BB089564BBB6
S11303F0089561BB0895823461F0833418F4813424
S113040069F405C0833439F0843441F406C06BBB0D
S1130410089568BB089565BB089562BB089582344E
S113042061F0833418F4813471F405C0833439F0F5
S1130430843449F406C089B3089586B3089583B318
S1130440089580B3089580E00895823451F183348F
S113045020F4813409F07BC007C0833409F43EC022
S1130460843409F074C057C0413069F42BB381E07F
S113047090E0AC0102C0440F551F6A95E2F7BA013F
S1130480622B6BBB08952BB381E090E0AC0102C0FA
S1130490440F551F6A95E2F7BA01609562236BBB5E
S11304A00895413069F428B381E090E0AC0102C0C2
S11304B0440F551F6A95E2F7BA01622B68BB089591
S11304C028B381E090E0AC0102C0440F551F6A9547
S11304D0E2F7BA016095622368BB0895413069F47C
S11304E025B381E090E0AC0102C0440F551F6A952A
S11304F0E2F7BA01622B65BB089525B381E090E071
S1130500AC0102C0440F551F6A95E2F7BA01609529
S1130510622365BB0895413069F422B381E090E021
S1130520AC0102C0440F551F6A95E2F7BA01622B71
S113053062BB089522B381E090E0AC0102C0440F95
S1130540551F6A95E2F7BA016095622362BB08956C
S11305506F70823481F0833418F48134F1F405C06F
S1130560833479F08434C9F412C08BB3807F8BBB9D
S11305708BB3862B8BBB88B3807F88BB88B3862BD9
S113058088BB85B3807F85BB85B3862B85BB82B34F
S1130590807F82BB82B3682B62BB08956295607FC3
S11305A0823481F0833418F48134F1F405C0833447
S11305B079F08434C9F412C08BB38F708BBB8BB3C6
S11305C0862B8BBB88B38F7088BB88B3862B88BB84
S11305D085B38F7085BB85B3862B85BB82B38F7043
S11305E082BB82B3682B62BB08958EBB9FBB6DBB7D
S11305F0E29AE19AE199FECF08958EBB9FBBE09AFF
S11306008DB3089584E460E041E00E94490084E4ED
S113061061E041E00E94490084E462E041E00E941C
S1130620490084E463E041E00E94490084E464E01A
S113063040E00E94490084E465E040E00E944900F3
S113064084E466E040E00E94490084E467E040E01E
S11306500E94490084E464E041E00E94250284E4AD
S113066065E041E00E94250284E466E041E00E94E6
S1130670250284E467E041E00E94250208950F9377
S11306801F93CF93DF93CDB7DEB760970FB6F8947F
S1130690DEBF0FBECDBFDE011196E0E6F0E080E1E3
S11306A001900D928150E1F700E084E460E041E0C4
S11306B00E94CC0084E461E041E00E94CC0084E428
S11306C062E041E00E94CC0084E463E041E00E94E7
S11306D0CC0084E4602F40E00E94CC0010E0612F45
S11306E06C5F84E40E944F01882361F4E02FF0E002
S11306F0EE0FFF1FEE0FFF1FE10FF11DEC0FFD1FAB
S1130700818104C01F5F143051F70BC060960FB68F
S1130710F894DEBF0FBECDBFDF91CF911F910F9133
S113072008950F5F043009F68FEFF0CF84E463E09F
S113073041E00E94CC008FE99FE00197F1F700C0EF
S1130740000084E463E040E00E94CC008FE99FE075
S11307500197F1F700C000000895CF93C82F682FC8
S113076062956F7084E40E94CE0282E467E040E008
S11307700E94CC000E94960381E46C2F0E94CE025A
S113078082E467E040E00E94CC000E9496038FEC74
S113079097E00197F1F700C00000CF91089581E43C
S11307A060E041E00E94CC008FE99FE00197F1F7FF
S11307B000C0000081E460E040E00E94CC008FE9CA
S11307C09FE00197F1F700C000000895CF93C82F70
S11307D0682F62956F7081E40E94CE0281E462E02A
S11307E040E00E94CC000E94CF0381E46C2F0E9461
S11307F0CE0281E462E040E00E94CC000E94CF037C
S11308008FEC97E00197F1F700C00000CF910895B5
S11308108FEF91EEA4E081509040A040E1F700C03A
S1130820000081E464E041E00E94490081E465E065
S113083041E00E94490081E466E041E00E944900F1
S113084081E467E041E00E94490081E460E041E026
S11308500E94490081E461E041E00E94490081E492
S113086062E041E00E94490081E461E040E00E94CE
S1130870CC0082E00E94E603AFE1BEE41197F1F7F9
S113088000C0000088E20E94E6038FEC97E0019725
S1130890F1F700C000008EE00E94E603AFECB7E081
S11308A01197F1F700C0000081E00E94E6038FE198
S11308B09EE40197F1F700C0000086E00E94E60381
S11308C0AFECB7E01197F1F700C000000895CF93A3
S11308D0C82F682F62956F7081E40E94CE0281E474
S11308E062E041E00E94CC000E94CF0381E46C2FBF
S11308F00E94CE0281E462E041E00E94CC000E94AA
S1130900CF038FEC97E00197F1F700C00000CF917F
S11309100895CF93DF93EC018881882331F02196E9
S11309200E94670489918823D9F7DF91CF910895B4
S113093081E00E94E6038FE19EE40197F1F700C095
S113094000000895282F2150223070F4613170F492
S1130950662371F0813019F4962F91580AC08230C1
S113096041F4962F915405C090E803C090E801C06B
S113097090E8892F0E94E6038FEC97E00197F1F746
S113098000C000000895CF93DF938FEF91EEA4E0B1
S113099081509040A040E1F700C0000084E464E08E
S11309A041E00E94490084E465E041E00E9449007E
S11309B084E466E041E00E94490084E467E041E0A9
S11309C00E94490084E463E041E00E94490084E419
S11309D062E041E00E94490082E467E041E00E9455
S11309E0490084E462E040E00E94CC00CDEAD3E018
S11309F082E090E0FE010995AFE1BEE41197F1F7C2
S1130A0000C0000088E290E0FE0109958FEC97E0B9
S1130A100197F1F700C000008EE090E0FE01099517
S1130A20AFECB7E01197F1F700C0000081E090E06F
S1130A30FE0109958FE19EE40197F1F700C00000E3
S1130A4086E090E0FE010995AFECB7E01197F1F76D
S1130A5000C00000DF91CF910895CF93C82F682F75
S1130A6062956F7084E40E94CE0282E467E041E004
S1130A700E94CC000E94960381E46C2F0E94CE0257
S1130A8082E467E041E00E94CC000E9496038FEC70
S1130A9097E00197F1F700C00000CF910895CF933C
S1130AA0DF93EC018881882331F021960E942D0583
S1130AB089918823D9F7DF91CF91089581E00E942D
S1130AC0AD038FE19EE40197F1F700C000000895A3
S1130AD0282F2150223070F4613170F4662371F0B4
S1130AE0813019F4962F91580AC0823041F4962F20
S1130AF0915405C090E803C090E801C090E8892FA4
S1130B000E94AD038FEC97E00197F1F700C000005D
S1130B1008951F920F920FB60F9211248F93809114
S1130B2084018F5F80938401809184018E3138F039
S1130B3010928401809187018F5F809387018F9148
S1130B400F900FBE0F901F9018951F920F920FB623
S1130B500F9211248F938CB1809378018F910F9011
S1130B600FBE0F901F901895CF93C0E08C2F90E08C
S1130B700E94FD028F3F11F0CF5FF8CF8C2F869536
S1130B80CF910895CF93DF93C0E0D0E0CE010E94CF
S1130B90FD028F3F39F02196C830D105B9F78FEFA8
S1130BA09FEF01C0CE01DF91CF91089584E461E00D
S1130BB00E94E70181E463E041E00E94490060E8AB
S1130BC075E280E090E00E94450B0E9408040E94B8
S1130BD0C30482E40E94C00AA09AA19AA29AA39A8A
S1130BE0A49AA59A80E790E00E94890482E061E0DB
S1130BF00E94A2048DE790E00E9489048AE890E0B4
S1130C000E944F0582E061E00E9468058AE990E055
S1130C100E944F050E94EB0A0E94880B0F2EF8ECED
S1130C206F2EF0E07F2EF02D0F2EF7ED4F2EF0E01B
S1130C305F2EF02D0F2EFAE82F2EF0E03F2EF02D30
S1130C400E94C205EC0181E463E040E00E94CC0014
S1130C5080917801813309F0D5C080E380937801D5
S1130C600E948A0B0E9498040E945E0589EA90E023
S1130C700E94890481E067E00E94A2048FEF94E35C
S1130C80ACE081509040A040E1F700C000000E9419
S1130C906C0B809388018F3FD1F30E9467048FEF20
S1130CA092E5A7E081509040A040E1F700C0000029
S1130CB00E946C0B809389018F3FD1F30E946704DB
S1130CC08FEF92E5A7E081509040A040E1F700C08B
S1130CD0000090918901905180918801880F282FFC
S1130CE0220F220F820F890F809385010E9498049E
S1130CF082EB90E00E94890481E069E00E94A204F2
S1130D000E946C0B809388018F3FD1F30E9467048B
S1130D108FEF92E5A7E081509040A040E1F700C03A
S1130D2000000E946C0B809389018F3FD1F30E94D5
S1130D3067048FEF92E5A7E081509040A040E1F76F
S1130D4000C0000090918901905180918801880F22
S1130D50282F220F220F820F890F809386010E9471
S1130D6098048DEB90E00E94890481E069E00E9480
S1130D70A2040E946C0B809388018F3FD1F30E94E0
S1130D8067048FEF92E5A7E081509040A040E1F71F
S1130D9000C000000E946C0B809389018F3FD1F347
S1130DA00E9467048FEF92E5A7E081509040A04035
S1130DB0E1F700C000009091890190518091880171
S1130DC0880F282F220F220F820F890F809387010B
S1130DD00E949804C3010E94890482E061E00E9499
S1130DE0A204C2010E948904C1010E944F0582E04D
S1130DF061E00E9468058AE990E00E944F05C0E026
S1130E00D0E0F7C280917801823309F0FEC080E31C
S1130E10809378010E948A0B9FEFCF3FD90709F096
S1130E2047C00E9498040E945E0581E063E00E942E
S1130E30A20486EE90E00E94890481E063E00E94AF
S1130E4068058DEE90E00E944F0582E065E00E9407
S1130E5068058CEF90E00E944F058FEF9EE9A4E2B5
S1130E6081509040A040E1F700C000000E94980427
S1130E70C3010E94890482E061E00E94A204C201CD
S1130E800E9489040E945E05C1010E944F0582E010
S1130E9061E00E9468058AE990E00E944F05809114
S1130EA089018E5F8093890180E30E94680BC8CE1C
S1130EB081E30E94680B0E945E0581E063E00E946A
S1130EC0680584E091E00E944F0582E066E00E949C
S1130ED068058FE091E00E944F050E94980489EA1A
S1130EE090E00E94890481E067E00E94A2048FEFF1
S1130EF094E3ACE081509040A040E1F700C00000D2
S1130F000E946C0B809388018F3FD1F30E94670489
S1130F108FEF92E5A7E081509040A040E1F700C038
S1130F2000000E946C0B809389018F3FD1F30E94D3
S1130F3067048FEF92E5A7E081509040A040E1F76D
S1130F4000C0000060918901605180918801880F80
S1130F50982F990F990F890F680FCE010E94F502FF
S1130F600E94980482EB90E00E94890481E069E089
S1130F700E94A2040E946C0B809388018F3FD1F3DE
S1130F800E9467048FEF92E5A7E081509040A04053
S1130F90E1F700C000000E946C0B809389018F3F31
S1130FA0D1F30E9467048FEF92E5A7E0815090404F
S1130FB0A040E1F700C00000609189016051809178
S1130FC08801880F982F990F990F890F680FCE0108
S1130FD001960E94F5020E949804C3010E948904AC
S1130FE082E061E00E94A204C2010E9489040E947E
S1130FF05E05C1010E944F0582E061E00E94680520
S11310008AE990E00E944F05FACE809178018433FA
S113101009F0D0C080E3809378010E9498040E9474
S11310205E0581E062E00E94680585E191E00E942E
S11310304F0582E065E00E94680584E291E00E9429
S11310404F05AA24BB24A394CC24DD246894C1F8BE
S1131050C0E0D0E00AE008C02296A2E0B0E0CA0EE8
S1131060DB1E0894A11CB11CCE010E94FD028F3F1F
S113107009F45BC08A2D805D0E9467048DE20E94A2
S11310806704CE010E94FD02602F0E948C0B805DDC
S11310900E946704CE010E94FD02602F0E948C0B07
S11310A0892F805D0E9467048AE30E9467047E01A1
S11310B00894E11CF11CC7010E94FD02602F0E94EC
S11310C08C0B805D0E946704C7010E94FD02602FA3
S11310D00E948C0B892F805D0E946704CE010E94C0
S11310E0FD02602F0E948C0B805D0E94680BCE0174
S11310F00E94FD02602F0E948C0B892F805D0E944C
S1131100680BC7010E94FD02602F0E948C0B805D5A
S11311100E94680BC7010E94FD02602F0E948C0B85
S1131120892F805D0E94680B0CC086E40E94680BC6
S113113086E40E94680B86E40E94680B86E40E94A1
S1131140680BC230D10529F482E061E00E94A20458
S113115083CF8CE291E00E948904B8E0CB16D104DD
S11311600CF47ACF8FEF97EAA1E681509040A0402B
S1131170E1F700C00000809189018C5680938901B9
S11311800E949804C3010E94890482E061E00E94E5
S1131190A204C2010E9489040E945E05C1010E944A
S11311A04F0582E061E00E9468058AE990E00E94B0
S11311B04F0525CE80917801833309F0E0C00E9469
S11311C08A0B80E3809378010E9498040E945E0554
S11311D081E062E00E94680585E191E00E944F058C
S11311E082E065E00E94680584E291E00E944F0578
S11311F081E065E00E94A2048FE291E00E948904EC
S113120082E067E00E94A20487E391E00E948904DF
S1131210C0E0D0E00AE0CE010E94FD028F3F59F108
S1131220CE010E94FD02602F0E948C0B805D0E9403
S1131230680BCE010E94FD02602F0E948C0B892F47
S1131240805D0E94680B7E010894E11CF11CC701BB
S11312500E94FD02602F0E948C0B805D0E94680B2F
S1131260C7010E94FD02602F0E948C0B892F805DB4
S11312700E94680B0CC086E40E94680B86E40E94FE
S1131280680B86E40E94680B86E40E94680B229631
S1131290C830D10509F0BFCF8FEF94E3ACE08150A3
S11312A09040A040E1F700C000000E9498048BE346
S11312B091E00E94890482E064E00E94A2048CE42C
S11312C091E00E94890481E061E10E94A2040E94ED
S11312D06C0B8823B9F18233A9F0833318F481337A
S11312E089F505C08333C9F0843361F521C080E0FA
S11312F090E06FEF0E94F50281E090E06FEF0E94B2
S1131300F50220C082E090E06FEF0E94F50283E0D6
S113131090E06FEF0E94F50215C084E090E06FEF5B
S11313200E94F50285E090E06FEF0E94F5020AC08A
S113133086E090E06FEF0E94F50287E090E06FEFA7
S11313400E94F50280918901885A80938901C30122
S11313500E94890482E061E00E94A204C2010E940A
S113136089040E945E05C1010E944F0582E061E08C
S11313700E9468058AE990E00E944F0540CD809163
S11313807801823309F43BCD80917801813309F4EB
S113139036CD80917801803309F431CD8091780184
S11313A0833309F42CCD80917801843309F427CD5B
S11313B00E94980486E591E00E9489048FEF99E6E3
S11313C0A8E181509040A040E1F700C000000E94D5
S11313D0980483E691E00E94890482E061E00E941F
S11313E0A2048EE691E00E94890480E38093780150
S11313F006CDCE010E94FD0290918501891779F4F2
S1131400CE0101960E94FD0290918601891739F45C
S113141081E463E041E00E94CC0090908601229632
S1131420CA30D10531F781E463E00E944F0188237B
S113143049F080918601981628F481E463E040E045
S11314400E94CC00A998AA98AB98AC98AD98A89A99
S113145080918701CAE06C2F0E948C0B82E4692F73
S11314600E94C40AAFE0B7E21197F1F700C0000090
S1131470A898AA98AB98AC98AD98A99A809187013E
S11314806C2F0E948C0B682F82E40E94C40A8FE0A8
S113149097E20197F1F700C00000A898A998AB98CB
S11314A0AC98AD98AA9A809186016C2F0E948C0BFF
S11314B082E4692F0E94C40AAFE0B7E21197F1F702
S11314C000C00000A898A998AA98AC98AD98AB9AC7
S11314D0809186016C2F0E948C0B682F82E40E94FD
S11314E0C40A8FE097E20197F1F700C00000A898C2
S11314F0A998AA98AB98AD98AC9A809185016C2F65
S11315000E948C0B82E4692F0E94C40AAFE0B7E208
S11315101197F1F700C00000A898A998AA98AB9871
S1131520AC98AD9A809185016C2F0E948C0B682F2A
S113153082E40E94C40A8FE097E20197F1F700C0A9
S11315400000809187018C3339F4109287018091D7
S113155086018F5F80938601809186018C3339F4F4
S113156010928601809185018F5F8093850180911F
S11315708501883111F4109285010E94880B60CB9B
S11315806FEF0E94E7010895CF93DF93CDB7DEB7E5
S11315902A970FB6F894DEBF0FBECDBFDE011196B9
S11315A0E9E7F1E08AE001900D928150E1F788B318
S11315B0807888BB98B3FE01E60FF11D8181809588
S11315C0892B88BB2A960FB6F894DEBF0FBECDBF19
S11315D0DF91CF91089582B5877F82BD85B5826002
S11315E085BD85B5816085BD85B5846085BD7894EC
S11315F089B7806489BF089583B7886083BF80E515
S11316008CBF83B7816083BF83B7846083BF7894C2
S113161089B7826089BF0895BB9A83B7886083BF06
S113162080E48CBF83B7816083BF83B7846083BF4A
S113163083B7806183BF0895BB9A83B7806483BFF7
S113164083B7886083BF80E48CBF83B7816083BF26
S113165083B7846083BF83B7806183BF83B78062AD
S113166083BF0895BB9A83B7806483BF80E48CBF33
S113167083B7816083BF83B7846083BF83B780618E
S113168083BF83B7806283BF0895DC01CB01880FD9
S1131690991FAA1FBB1F880F991FAA1FBB1F9C015C
S11316A0AD01220F331F441F551F220F331F441F48
S11316B0551F60E072E18AE790E00E94980B215088
S11316C0304030BD29B9539A549A86E880BD0895B4
S11316D05D9BFECF8CB908955F9BFECF8CB10895BE
S11316E0CF93DF93EC018881882379F021960E94BF
S11316F0680B8FEF90E7A2E081509040A040E1F7A3
S113170000C000008991882391F7DF91CF9108955B
S1131710579A089557980895991B79E004C0991F22
S1131720961708F0961B881F7A95C9F78095089537
S1131730A1E21A2EAA1BBB1BFD010DC0AA1FBB1FD1
S1131740EE1FFF1FA217B307E407F50720F0A21B43
S1131750B30BE40BF50B661F771F881F991F1A94B0
S113176069F760957095809590959B01AC01BD01DA
S10B1770CF010895F894FFCFA6
S11317783738392F3435362A3132332D41303D2B21
S1131788313A2073657420636C6F636B00323A20BE
S113179861646420616C61726D00333A2072656D16
S11317A86F766520616C61726D00343A2073686FDE
S11317B87720616C61726D7300686F7572733D2D6B
S11317C82D006D696E757465733D2D2D0073656309
S11317D86F6E64733D2D2D003120746F2073657412
S11317E820636C6F636B003220746F206164642023
S11317F8616C61726D00536F72727921004D61786A
S1131808696D756D204E756D626572005265616310
S113181868656400416464696E67206E6577004199
S11318284C61726D00436C6F636B20697320737431
S1131838696C6C00776F726B696E67002020004CCE
S11318486F6F6B206174004755490044656C65747B
S11318586520416C61726D204E6F3A003020746FC0
S1131868206261636B0077726F6E672063686F69CB
S11318786365007072657373203120746F0073653B
S11318887420636C6F636B00303F065B4F666D7D3D
S1071898477F6F0013
S9030000FC
